{
  "contractName": "Voting",
  "abi": [
    {
      "anonymous": false,
      "inputs": [
        {
          "indexed": true,
          "internalType": "address",
          "name": "previousOwner",
          "type": "address"
        },
        {
          "indexed": true,
          "internalType": "address",
          "name": "newOwner",
          "type": "address"
        }
      ],
      "name": "OwnershipTransferred",
      "type": "event"
    },
    {
      "anonymous": false,
      "inputs": [
        {
          "indexed": false,
          "internalType": "uint256",
          "name": "proposalId",
          "type": "uint256"
        }
      ],
      "name": "ProposalRegistered",
      "type": "event"
    },
    {
      "anonymous": false,
      "inputs": [
        {
          "indexed": false,
          "internalType": "address",
          "name": "voter",
          "type": "address"
        },
        {
          "indexed": false,
          "internalType": "uint256",
          "name": "proposalId",
          "type": "uint256"
        }
      ],
      "name": "Voted",
      "type": "event"
    },
    {
      "anonymous": false,
      "inputs": [
        {
          "indexed": false,
          "internalType": "address",
          "name": "voterAddress",
          "type": "address"
        }
      ],
      "name": "VoterRegistered",
      "type": "event"
    },
    {
      "anonymous": false,
      "inputs": [
        {
          "indexed": false,
          "internalType": "enum Voting.WorkflowStatus",
          "name": "previousStatus",
          "type": "uint8"
        },
        {
          "indexed": false,
          "internalType": "enum Voting.WorkflowStatus",
          "name": "newStatus",
          "type": "uint8"
        }
      ],
      "name": "WorkflowStatusChange",
      "type": "event"
    },
    {
      "inputs": [],
      "name": "owner",
      "outputs": [
        {
          "internalType": "address",
          "name": "",
          "type": "address"
        }
      ],
      "stateMutability": "view",
      "type": "function",
      "constant": true
    },
    {
      "inputs": [],
      "name": "renounceOwnership",
      "outputs": [],
      "stateMutability": "nonpayable",
      "type": "function"
    },
    {
      "inputs": [
        {
          "internalType": "address",
          "name": "newOwner",
          "type": "address"
        }
      ],
      "name": "transferOwnership",
      "outputs": [],
      "stateMutability": "nonpayable",
      "type": "function"
    },
    {
      "inputs": [],
      "name": "winningProposalID",
      "outputs": [
        {
          "internalType": "uint256",
          "name": "",
          "type": "uint256"
        }
      ],
      "stateMutability": "view",
      "type": "function",
      "constant": true
    },
    {
      "inputs": [],
      "name": "workflowStatus",
      "outputs": [
        {
          "internalType": "enum Voting.WorkflowStatus",
          "name": "",
          "type": "uint8"
        }
      ],
      "stateMutability": "view",
      "type": "function",
      "constant": true
    },
    {
      "inputs": [
        {
          "internalType": "address",
          "name": "_addr",
          "type": "address"
        }
      ],
      "name": "getVoter",
      "outputs": [
        {
          "components": [
            {
              "internalType": "bool",
              "name": "isRegistered",
              "type": "bool"
            },
            {
              "internalType": "bool",
              "name": "hasVoted",
              "type": "bool"
            },
            {
              "internalType": "uint256",
              "name": "votedProposalId",
              "type": "uint256"
            },
            {
              "internalType": "uint256",
              "name": "proposalsAdded",
              "type": "uint256"
            }
          ],
          "internalType": "struct Voting.Voter",
          "name": "",
          "type": "tuple"
        }
      ],
      "stateMutability": "view",
      "type": "function",
      "constant": true
    },
    {
      "inputs": [
        {
          "internalType": "uint256",
          "name": "_id",
          "type": "uint256"
        }
      ],
      "name": "getOneProposal",
      "outputs": [
        {
          "components": [
            {
              "internalType": "string",
              "name": "description",
              "type": "string"
            },
            {
              "internalType": "uint256",
              "name": "voteCount",
              "type": "uint256"
            }
          ],
          "internalType": "struct Voting.Proposal",
          "name": "",
          "type": "tuple"
        }
      ],
      "stateMutability": "view",
      "type": "function",
      "constant": true
    },
    {
      "inputs": [
        {
          "internalType": "address",
          "name": "_addr",
          "type": "address"
        }
      ],
      "name": "addVoter",
      "outputs": [],
      "stateMutability": "nonpayable",
      "type": "function"
    },
    {
      "inputs": [
        {
          "internalType": "string",
          "name": "_desc",
          "type": "string"
        }
      ],
      "name": "addProposal",
      "outputs": [],
      "stateMutability": "nonpayable",
      "type": "function"
    },
    {
      "inputs": [
        {
          "internalType": "uint256",
          "name": "_id",
          "type": "uint256"
        }
      ],
      "name": "setVote",
      "outputs": [],
      "stateMutability": "nonpayable",
      "type": "function"
    },
    {
      "inputs": [],
      "name": "startProposalsRegistering",
      "outputs": [],
      "stateMutability": "nonpayable",
      "type": "function"
    },
    {
      "inputs": [],
      "name": "endProposalsRegistering",
      "outputs": [],
      "stateMutability": "nonpayable",
      "type": "function"
    },
    {
      "inputs": [],
      "name": "startVotingSession",
      "outputs": [],
      "stateMutability": "nonpayable",
      "type": "function"
    },
    {
      "inputs": [],
      "name": "endVotingSession",
      "outputs": [],
      "stateMutability": "nonpayable",
      "type": "function"
    },
    {
      "inputs": [],
      "name": "tallyVotes",
      "outputs": [],
      "stateMutability": "nonpayable",
      "type": "function"
    }
  ],
  "bytecode": "0x608060405234801561001057600080fd5b5061002d61002261003260201b60201c565b61003a60201b60201c565b6100fe565b600033905090565b60008060009054906101000a900473ffffffffffffffffffffffffffffffffffffffff169050816000806101000a81548173ffffffffffffffffffffffffffffffffffffffff021916908373ffffffffffffffffffffffffffffffffffffffff1602179055508173ffffffffffffffffffffffffffffffffffffffff168173ffffffffffffffffffffffffffffffffffffffff167f8be0079c531659141344cd1fd0a4f28419497f9722a3daafe3b4186f6b6457e060405160405180910390a35050565b6123f5806200010e6000396000f3fe608060405234801561001057600080fd5b50600436106100f55760003560e01c8063a7bfab1611610097578063d4f50f9811610066578063d4f50f98146101ee578063ee74c6781461021e578063f2fde38b14610228578063f4ab9adf14610244576100f5565b8063a7bfab16146101b2578063bdc01431146101bc578063c7038a4e146101da578063c88af42f146101e4576100f5565b8063715018a6116100d3578063715018a61461013c5780638da5cb5b14610146578063a1edffa214610164578063a2788cce14610182576100f5565b8063230796ae146100fa5780632fdae3c514610116578063378a217814610132575b600080fd5b610114600480360381019061010f91906115f0565b610260565b005b610130600480360381019061012b9190611682565b61055b565b005b61013a6108c2565b005b610144610a2f565b005b61014e610a43565b60405161015b9190611710565b60405180910390f35b61016c610a6c565b60405161017991906117a2565b60405180910390f35b61019c600480360381019061019791906115f0565b610a7f565b6040516101a991906118a2565b60405180910390f35b6101ba610be6565b005b6101c4610ccc565b6040516101d191906118d3565b60405180910390f35b6101e2610cd2565b005b6101ec610e54565b005b6102086004803603810190610203919061191a565b610f39565b60405161021591906119b7565b60405180910390f35b61022661106b565b005b610242600480360381019061023d919061191a565b611151565b005b61025e6004803603810190610259919061191a565b6111d4565b005b600460003373ffffffffffffffffffffffffffffffffffffffff1673ffffffffffffffffffffffffffffffffffffffff16815260200190815260200160002060000160009054906101000a900460ff166102ef576040517f08c379a00000000000000000000000000000000000000000000000000000000081526004016102e690611a2f565b60405180910390fd5b600360058111156103035761030261172b565b5b600260009054906101000a900460ff1660058111156103255761032461172b565b5b14610365576040517f08c379a000000000000000000000000000000000000000000000000000000000815260040161035c90611ac1565b60405180910390fd5b60011515600460003373ffffffffffffffffffffffffffffffffffffffff1673ffffffffffffffffffffffffffffffffffffffff16815260200190815260200160002060000160019054906101000a900460ff161515036103fb576040517f08c379a00000000000000000000000000000000000000000000000000000000081526004016103f290611b2d565b60405180910390fd5b6003805490508110610442576040517f08c379a000000000000000000000000000000000000000000000000000000000815260040161043990611b99565b60405180910390fd5b80600460003373ffffffffffffffffffffffffffffffffffffffff1673ffffffffffffffffffffffffffffffffffffffff168152602001908152602001600020600101819055506001600460003373ffffffffffffffffffffffffffffffffffffffff1673ffffffffffffffffffffffffffffffffffffffff16815260200190815260200160002060000160016101000a81548160ff021916908315150217905550600381815481106104f8576104f7611bb9565b5b9060005260206000209060020201600101600081548092919061051a90611c17565b91905055507f4d99b957a2bc29a30ebd96a7be8e68fe50a3c701db28a91436490b7d53870ca43382604051610550929190611c5f565b60405180910390a150565b600460003373ffffffffffffffffffffffffffffffffffffffff1673ffffffffffffffffffffffffffffffffffffffff16815260200190815260200160002060000160009054906101000a900460ff166105ea576040517f08c379a00000000000000000000000000000000000000000000000000000000081526004016105e190611a2f565b60405180910390fd5b600160058111156105fe576105fd61172b565b5b600260009054906101000a900460ff1660058111156106205761061f61172b565b5b14610660576040517f08c379a000000000000000000000000000000000000000000000000000000000815260040161065790611cd4565b60405180910390fd5b6003600460003373ffffffffffffffffffffffffffffffffffffffff1673ffffffffffffffffffffffffffffffffffffffff16815260200190815260200160002060020154106106e5576040517f08c379a00000000000000000000000000000000000000000000000000000000081526004016106dc90611d66565b60405180910390fd5b6040516020016106f490611dac565b60405160208183030381529060405280519060200120828260405160200161071d929190611e08565b6040516020818303038152906040528051906020012003610773576040517f08c379a000000000000000000000000000000000000000000000000000000000815260040161076a90611e9e565b60405180910390fd5b61077b6114c7565b82828080601f016020809104026020016040519081016040528093929190818152602001838380828437600081840152601f19601f820116905080830192505050505050508160000181905250600381908060018154018082558091505060019003906000526020600020906002020160009091909190915060008201518160000190805190602001906108109291906114e1565b50602082015181600101555050600460003373ffffffffffffffffffffffffffffffffffffffff1673ffffffffffffffffffffffffffffffffffffffff168152602001908152602001600020600201600081548092919061087090611c17565b91905055507f92e393e9b54e2f801d3ea4beb0c5e71a21cc34a5d34b77d0fb8a3aa1650dc18f60016003805490506108a89190611ebe565b6040516108b591906118d3565b60405180910390a1505050565b6108ca61137d565b600460058111156108de576108dd61172b565b5b600260009054906101000a900460ff166005811115610900576108ff61172b565b5b14610940576040517f08c379a000000000000000000000000000000000000000000000000000000000815260040161093790611f64565b60405180910390fd5b600080600090505b6003805490508110156109be576003828154811061096957610968611bb9565b5b9060005260206000209060020201600101546003828154811061098f5761098e611bb9565b5b90600052602060002090600202016001015411156109ab578091505b80806109b690611c17565b915050610948565b50806001819055506005600260006101000a81548160ff021916908360058111156109ec576109eb61172b565b5b02179055507f0a97a4ee45751e2abf3e4fc8946939630b11b371ea8ae39ccdc3056e98f5cc3f60046005604051610a24929190611f84565b60405180910390a150565b610a3761137d565b610a4160006113fb565b565b60008060009054906101000a900473ffffffffffffffffffffffffffffffffffffffff16905090565b600260009054906101000a900460ff1681565b610a876114c7565b600460003373ffffffffffffffffffffffffffffffffffffffff1673ffffffffffffffffffffffffffffffffffffffff16815260200190815260200160002060000160009054906101000a900460ff16610b16576040517f08c379a0000000000000000000000000000000000000000000000000000000008152600401610b0d90611a2f565b60405180910390fd5b60038281548110610b2a57610b29611bb9565b5b9060005260206000209060020201604051806040016040529081600082018054610b5390611fdc565b80601f0160208091040260200160405190810160405280929190818152602001828054610b7f90611fdc565b8015610bcc5780601f10610ba157610100808354040283529160200191610bcc565b820191906000526020600020905b815481529060010190602001808311610baf57829003601f168201915b505050505081526020016001820154815250509050919050565b610bee61137d565b60036005811115610c0257610c0161172b565b5b600260009054906101000a900460ff166005811115610c2457610c2361172b565b5b14610c64576040517f08c379a0000000000000000000000000000000000000000000000000000000008152600401610c5b90611ac1565b60405180910390fd5b6004600260006101000a81548160ff02191690836005811115610c8a57610c8961172b565b5b02179055507f0a97a4ee45751e2abf3e4fc8946939630b11b371ea8ae39ccdc3056e98f5cc3f60036004604051610cc2929190611f84565b60405180910390a1565b60015481565b610cda61137d565b60006005811115610cee57610ced61172b565b5b600260009054906101000a900460ff166005811115610d1057610d0f61172b565b5b14610d50576040517f08c379a0000000000000000000000000000000000000000000000000000000008152600401610d479061207f565b60405180910390fd5b6001600260006101000a81548160ff02191690836005811115610d7657610d7561172b565b5b0217905550610d836114c7565b6040518060400160405280600781526020017f47454e4553495300000000000000000000000000000000000000000000000000815250816000018190525060038190806001815401808255809150506001900390600052602060002090600202016000909190919091506000820151816000019080519060200190610e099291906114e1565b506020820151816001015550507f0a97a4ee45751e2abf3e4fc8946939630b11b371ea8ae39ccdc3056e98f5cc3f60006001604051610e49929190611f84565b60405180910390a150565b610e5c61137d565b60016005811115610e7057610e6f61172b565b5b600260009054906101000a900460ff166005811115610e9257610e9161172b565b5b14610ed2576040517f08c379a0000000000000000000000000000000000000000000000000000000008152600401610ec990612111565b60405180910390fd5b60028060006101000a81548160ff02191690836005811115610ef757610ef661172b565b5b02179055507f0a97a4ee45751e2abf3e4fc8946939630b11b371ea8ae39ccdc3056e98f5cc3f60016002604051610f2f929190611f84565b60405180910390a1565b610f41611567565b600460003373ffffffffffffffffffffffffffffffffffffffff1673ffffffffffffffffffffffffffffffffffffffff16815260200190815260200160002060000160009054906101000a900460ff16610fd0576040517f08c379a0000000000000000000000000000000000000000000000000000000008152600401610fc790611a2f565b60405180910390fd5b600460008373ffffffffffffffffffffffffffffffffffffffff1673ffffffffffffffffffffffffffffffffffffffff1681526020019081526020016000206040518060800160405290816000820160009054906101000a900460ff161515151581526020016000820160019054906101000a900460ff16151515158152602001600182015481526020016002820154815250509050919050565b61107361137d565b600260058111156110875761108661172b565b5b600260009054906101000a900460ff1660058111156110a9576110a861172b565b5b146110e9576040517f08c379a00000000000000000000000000000000000000000000000000000000081526004016110e0906121a3565b60405180910390fd5b6003600260006101000a81548160ff0219169083600581111561110f5761110e61172b565b5b02179055507f0a97a4ee45751e2abf3e4fc8946939630b11b371ea8ae39ccdc3056e98f5cc3f60026003604051611147929190611f84565b60405180910390a1565b61115961137d565b600073ffffffffffffffffffffffffffffffffffffffff168173ffffffffffffffffffffffffffffffffffffffff16036111c8576040517f08c379a00000000000000000000000000000000000000000000000000000000081526004016111bf90612235565b60405180910390fd5b6111d1816113fb565b50565b6111dc61137d565b600060058111156111f0576111ef61172b565b5b600260009054906101000a900460ff1660058111156112125761121161172b565b5b14611252576040517f08c379a0000000000000000000000000000000000000000000000000000000008152600401611249906122c7565b60405180910390fd5b60011515600460008373ffffffffffffffffffffffffffffffffffffffff1673ffffffffffffffffffffffffffffffffffffffff16815260200190815260200160002060000160009054906101000a900460ff161515036112e8576040517f08c379a00000000000000000000000000000000000000000000000000000000081526004016112df90612333565b60405180910390fd5b6001600460008373ffffffffffffffffffffffffffffffffffffffff1673ffffffffffffffffffffffffffffffffffffffff16815260200190815260200160002060000160006101000a81548160ff0219169083151502179055507fb6be2187d059cc2a55fe29e0e503b566e1e0f8c8780096e185429350acffd3dd816040516113729190611710565b60405180910390a150565b6113856114bf565b73ffffffffffffffffffffffffffffffffffffffff166113a3610a43565b73ffffffffffffffffffffffffffffffffffffffff16146113f9576040517f08c379a00000000000000000000000000000000000000000000000000000000081526004016113f09061239f565b60405180910390fd5b565b60008060009054906101000a900473ffffffffffffffffffffffffffffffffffffffff169050816000806101000a81548173ffffffffffffffffffffffffffffffffffffffff021916908373ffffffffffffffffffffffffffffffffffffffff1602179055508173ffffffffffffffffffffffffffffffffffffffff168173ffffffffffffffffffffffffffffffffffffffff167f8be0079c531659141344cd1fd0a4f28419497f9722a3daafe3b4186f6b6457e060405160405180910390a35050565b600033905090565b604051806040016040528060608152602001600081525090565b8280546114ed90611fdc565b90600052602060002090601f01602090048101928261150f5760008555611556565b82601f1061152857805160ff1916838001178555611556565b82800160010185558215611556579182015b8281111561155557825182559160200191906001019061153a565b5b5090506115639190611593565b5090565b604051806080016040528060001515815260200160001515815260200160008152602001600081525090565b5b808211156115ac576000816000905550600101611594565b5090565b600080fd5b600080fd5b6000819050919050565b6115cd816115ba565b81146115d857600080fd5b50565b6000813590506115ea816115c4565b92915050565b600060208284031215611606576116056115b0565b5b6000611614848285016115db565b91505092915050565b600080fd5b600080fd5b600080fd5b60008083601f8401126116425761164161161d565b5b8235905067ffffffffffffffff81111561165f5761165e611622565b5b60208301915083600182028301111561167b5761167a611627565b5b9250929050565b60008060208385031215611699576116986115b0565b5b600083013567ffffffffffffffff8111156116b7576116b66115b5565b5b6116c38582860161162c565b92509250509250929050565b600073ffffffffffffffffffffffffffffffffffffffff82169050919050565b60006116fa826116cf565b9050919050565b61170a816116ef565b82525050565b60006020820190506117256000830184611701565b92915050565b7f4e487b7100000000000000000000000000000000000000000000000000000000600052602160045260246000fd5b6006811061176b5761176a61172b565b5b50565b600081905061177c8261175a565b919050565b600061178c8261176e565b9050919050565b61179c81611781565b82525050565b60006020820190506117b76000830184611793565b92915050565b600081519050919050565b600082825260208201905092915050565b60005b838110156117f75780820151818401526020810190506117dc565b83811115611806576000848401525b50505050565b6000601f19601f8301169050919050565b6000611828826117bd565b61183281856117c8565b93506118428185602086016117d9565b61184b8161180c565b840191505092915050565b61185f816115ba565b82525050565b60006040830160008301518482036000860152611882828261181d565b91505060208301516118976020860182611856565b508091505092915050565b600060208201905081810360008301526118bc8184611865565b905092915050565b6118cd816115ba565b82525050565b60006020820190506118e860008301846118c4565b92915050565b6118f7816116ef565b811461190257600080fd5b50565b600081359050611914816118ee565b92915050565b6000602082840312156119305761192f6115b0565b5b600061193e84828501611905565b91505092915050565b60008115159050919050565b61195c81611947565b82525050565b6080820160008201516119786000850182611953565b50602082015161198b6020850182611953565b50604082015161199e6040850182611856565b5060608201516119b16060850182611856565b50505050565b60006080820190506119cc6000830184611962565b92915050565b600082825260208201905092915050565b7f596f75277265206e6f74206120766f7465720000000000000000000000000000600082015250565b6000611a196012836119d2565b9150611a24826119e3565b602082019050919050565b60006020820190508181036000830152611a4881611a0c565b9050919050565b7f566f74696e672073657373696f6e20686176656e74207374617274656420796560008201527f7400000000000000000000000000000000000000000000000000000000000000602082015250565b6000611aab6021836119d2565b9150611ab682611a4f565b604082019050919050565b60006020820190508181036000830152611ada81611a9e565b9050919050565b7f596f75206861766520616c726561647920766f74656400000000000000000000600082015250565b6000611b176016836119d2565b9150611b2282611ae1565b602082019050919050565b60006020820190508181036000830152611b4681611b0a565b9050919050565b7f50726f706f73616c206e6f7420666f756e640000000000000000000000000000600082015250565b6000611b836012836119d2565b9150611b8e82611b4d565b602082019050919050565b60006020820190508181036000830152611bb281611b76565b9050919050565b7f4e487b7100000000000000000000000000000000000000000000000000000000600052603260045260246000fd5b7f4e487b7100000000000000000000000000000000000000000000000000000000600052601160045260246000fd5b6000611c22826115ba565b91507fffffffffffffffffffffffffffffffffffffffffffffffffffffffffffffffff8203611c5457611c53611be8565b5b600182019050919050565b6000604082019050611c746000830185611701565b611c8160208301846118c4565b9392505050565b7f50726f706f73616c7320617265206e6f7420616c6c6f77656420796574000000600082015250565b6000611cbe601d836119d2565b9150611cc982611c88565b602082019050919050565b60006020820190508181036000830152611ced81611cb1565b9050919050565b7f4120766f7465722063616e206164642061206d6178696d756d206f662033207060008201527f726f706f73616c73000000000000000000000000000000000000000000000000602082015250565b6000611d506028836119d2565b9150611d5b82611cf4565b604082019050919050565b60006020820190508181036000830152611d7f81611d43565b9050919050565b50565b6000611d966000836119d2565b9150611da182611d86565b600082019050919050565b60006020820190508181036000830152611dc581611d89565b9050919050565b82818337600083830152505050565b6000611de783856119d2565b9350611df4838584611dcc565b611dfd8361180c565b840190509392505050565b60006020820190508181036000830152611e23818486611ddb565b90509392505050565b7f566f7573206e6520706f7576657a20706173206e65207269656e2070726f706f60008201527f7365720000000000000000000000000000000000000000000000000000000000602082015250565b6000611e886023836119d2565b9150611e9382611e2c565b604082019050919050565b60006020820190508181036000830152611eb781611e7b565b9050919050565b6000611ec9826115ba565b9150611ed4836115ba565b925082821015611ee757611ee6611be8565b5b828203905092915050565b7f43757272656e7420737461747573206973206e6f7420766f74696e672073657360008201527f73696f6e20656e64656400000000000000000000000000000000000000000000602082015250565b6000611f4e602a836119d2565b9150611f5982611ef2565b604082019050919050565b60006020820190508181036000830152611f7d81611f41565b9050919050565b6000604082019050611f996000830185611793565b611fa66020830184611793565b9392505050565b7f4e487b7100000000000000000000000000000000000000000000000000000000600052602260045260246000fd5b60006002820490506001821680611ff457607f821691505b60208210810361200757612006611fad565b5b50919050565b7f5265676973746572696e672070726f706f73616c732063616e7420626520737460008201527f6172746564206e6f770000000000000000000000000000000000000000000000602082015250565b60006120696029836119d2565b91506120748261200d565b604082019050919050565b600060208201905081810360008301526120988161205c565b9050919050565b7f5265676973746572696e672070726f706f73616c7320686176656e742073746160008201527f7274656420796574000000000000000000000000000000000000000000000000602082015250565b60006120fb6028836119d2565b91506121068261209f565b604082019050919050565b6000602082019050818103600083015261212a816120ee565b9050919050565b7f5265676973746572696e672070726f706f73616c73207068617365206973206e60008201527f6f742066696e6973686564000000000000000000000000000000000000000000602082015250565b600061218d602b836119d2565b915061219882612131565b604082019050919050565b600060208201905081810360008301526121bc81612180565b9050919050565b7f4f776e61626c653a206e6577206f776e657220697320746865207a65726f206160008201527f6464726573730000000000000000000000000000000000000000000000000000602082015250565b600061221f6026836119d2565b915061222a826121c3565b604082019050919050565b6000602082019050818103600083015261224e81612212565b9050919050565b7f566f7465727320726567697374726174696f6e206973206e6f74206f70656e2060008201527f7965740000000000000000000000000000000000000000000000000000000000602082015250565b60006122b16023836119d2565b91506122bc82612255565b604082019050919050565b600060208201905081810360008301526122e0816122a4565b9050919050565b7f416c726561647920726567697374657265640000000000000000000000000000600082015250565b600061231d6012836119d2565b9150612328826122e7565b602082019050919050565b6000602082019050818103600083015261234c81612310565b9050919050565b7f4f776e61626c653a2063616c6c6572206973206e6f7420746865206f776e6572600082015250565b60006123896020836119d2565b915061239482612353565b602082019050919050565b600060208201905081810360008301526123b88161237c565b905091905056fea264697066735822122028810ec625c34782ad2c24ffd23d96797e731068fc1d7d3e7a74e0dd53e8ffdd64736f6c634300080d0033",
  "immutableReferences": {},
  "source": "// SPDX-License-Identifier: MIT\n\npragma solidity 0.8.13;\nimport \"../node_modules/@openzeppelin/contracts/access/Ownable.sol\";\n\n/// @title Voting contract allowing voter + proposal registration, voting and tallying votes\n/// @author Jeremy Poinas\ncontract Voting is Ownable {\n\n    uint public winningProposalID;\n    \n    struct Voter {\n        bool isRegistered;\n        bool hasVoted;\n        uint votedProposalId;\n        uint proposalsAdded;\n    }\n\n    struct Proposal {\n        string description;\n        uint voteCount;\n    }\n\n    enum  WorkflowStatus {\n        RegisteringVoters,\n        ProposalsRegistrationStarted,\n        ProposalsRegistrationEnded,\n        VotingSessionStarted,\n        VotingSessionEnded,\n        VotesTallied\n    }\n\n    WorkflowStatus public workflowStatus;\n    Proposal[] proposalsArray;\n    mapping (address => Voter) voters;\n\n\n    event VoterRegistered(address voterAddress); \n    event WorkflowStatusChange(WorkflowStatus previousStatus, WorkflowStatus newStatus);\n    event ProposalRegistered(uint proposalId);\n    event Voted (address voter, uint proposalId);\n    \n    /// @notice Check if the msg.sender is registered\n    modifier onlyVoters() {\n        require(voters[msg.sender].isRegistered, \"You're not a voter\");\n        _;\n    }\n    \n    // on peut faire un modifier pour les tats\n\n    // ::::::::::::: GETTERS ::::::::::::: //\n\n    /// @notice Get one voter\n    /// @param _addr Voters's ID\n    /// @return Voter\n    function getVoter(address _addr) external onlyVoters view returns (Voter memory) {\n        return voters[_addr];\n    }\n    \n    /// @notice Get one proposal\n    /// @param _id Proposal's ID\n    /// @return Proposal\n    function getOneProposal(uint _id) external onlyVoters view returns (Proposal memory) {\n        return proposalsArray[_id];\n    }\n\n \n    // ::::::::::::: REGISTRATION ::::::::::::: // \n\n    /// @notice Register a new voter\n    /// @param _addr New Voter's address\n    function addVoter(address _addr) external onlyOwner {\n        require(workflowStatus == WorkflowStatus.RegisteringVoters, 'Voters registration is not open yet');\n        require(voters[_addr].isRegistered != true, 'Already registered');\n    \n        voters[_addr].isRegistered = true;\n        emit VoterRegistered(_addr);\n    }\n \n\n    // ::::::::::::: PROPOSAL ::::::::::::: // \n\n    /// @notice Add a new proposal\n    /// @param _desc Proposal's description\n    function addProposal(string calldata _desc) external onlyVoters {\n        require(workflowStatus == WorkflowStatus.ProposalsRegistrationStarted, 'Proposals are not allowed yet');\n        require(voters[msg.sender].proposalsAdded < 3, 'A voter can add a maximum of 3 proposals');\n        require(keccak256(abi.encode(_desc)) != keccak256(abi.encode(\"\")), 'Vous ne pouvez pas ne rien proposer'); // facultatif\n        // voir que desc est different des autres\n\n        Proposal memory proposal;\n        proposal.description = _desc;\n        proposalsArray.push(proposal);\n        voters[msg.sender].proposalsAdded++;\n        emit ProposalRegistered(proposalsArray.length-1);\n    }\n\n    // ::::::::::::: VOTE ::::::::::::: //\n\n    /// @notice Vote for a proposal based on its ID\n    /// @param _id Proposal's ID\n    function setVote( uint _id) external onlyVoters {\n        require(workflowStatus == WorkflowStatus.VotingSessionStarted, 'Voting session havent started yet');\n        require(voters[msg.sender].hasVoted != true, 'You have already voted');\n        require(_id < proposalsArray.length, 'Proposal not found'); // pas oblig, et pas besoin du >0 car uint\n\n        voters[msg.sender].votedProposalId = _id;\n        voters[msg.sender].hasVoted = true;\n        proposalsArray[_id].voteCount++;\n\n        emit Voted(msg.sender, _id);\n    }\n\n    // ::::::::::::: STATE ::::::::::::: //\n\n    /// @notice Start the proposal registration\n    function startProposalsRegistering() external onlyOwner {\n        require(workflowStatus == WorkflowStatus.RegisteringVoters, 'Registering proposals cant be started now');\n        workflowStatus = WorkflowStatus.ProposalsRegistrationStarted;\n        \n        Proposal memory proposal;\n        proposal.description = \"GENESIS\";\n        proposalsArray.push(proposal);\n        \n        emit WorkflowStatusChange(WorkflowStatus.RegisteringVoters, WorkflowStatus.ProposalsRegistrationStarted);\n    }\n\n    /// @notice End the proposal registration\n    function endProposalsRegistering() external onlyOwner {\n        require(workflowStatus == WorkflowStatus.ProposalsRegistrationStarted, 'Registering proposals havent started yet');\n        workflowStatus = WorkflowStatus.ProposalsRegistrationEnded;\n        emit WorkflowStatusChange(WorkflowStatus.ProposalsRegistrationStarted, WorkflowStatus.ProposalsRegistrationEnded);\n    }\n\n    /// @notice Start the voting session\n    function startVotingSession() external onlyOwner {\n        require(workflowStatus == WorkflowStatus.ProposalsRegistrationEnded, 'Registering proposals phase is not finished');\n        workflowStatus = WorkflowStatus.VotingSessionStarted;\n        emit WorkflowStatusChange(WorkflowStatus.ProposalsRegistrationEnded, WorkflowStatus.VotingSessionStarted);\n    }\n\n    /// @notice End the voting session\n    function endVotingSession() external onlyOwner {\n        require(workflowStatus == WorkflowStatus.VotingSessionStarted, 'Voting session havent started yet');\n        workflowStatus = WorkflowStatus.VotingSessionEnded;\n        emit WorkflowStatusChange(WorkflowStatus.VotingSessionStarted, WorkflowStatus.VotingSessionEnded);\n    }\n\n    /// @notice Calculate the winning Proposal based on the max number of votes\n    function tallyVotes() external onlyOwner {\n        require(workflowStatus == WorkflowStatus.VotingSessionEnded, \"Current status is not voting session ended\");\n        uint _winningProposalId;\n        for (uint256 p = 0; p < proposalsArray.length; p++) {\n            if (proposalsArray[p].voteCount > proposalsArray[_winningProposalId].voteCount) {\n                _winningProposalId = p;\n            }\n        }\n        winningProposalID = _winningProposalId;\n        \n        workflowStatus = WorkflowStatus.VotesTallied;\n        emit WorkflowStatusChange(WorkflowStatus.VotingSessionEnded, WorkflowStatus.VotesTallied);\n    }\n}",
  "sourcePath": "/home/student/Bureau/Alyra/Alyra_Project_3/truffle/contracts/Voting.sol",
  "compiler": {
    "name": "solc",
    "version": "0.8.13+commit.abaa5c0e.Emscripten.clang"
  },
  "schemaVersion": "3.4.10",
  "updatedAt": "2022-11-22T12:02:30.440Z",
  "networkType": "ethereum",
  "devdoc": {
    "author": "Jeremy Poinas",
    "kind": "dev",
    "methods": {
      "addProposal(string)": {
        "params": {
          "_desc": "Proposal's description"
        }
      },
      "addVoter(address)": {
        "params": {
          "_addr": "New Voter's address"
        }
      },
      "getOneProposal(uint256)": {
        "params": {
          "_id": "Proposal's ID"
        },
        "returns": {
          "_0": "Proposal"
        }
      },
      "getVoter(address)": {
        "params": {
          "_addr": "Voters's ID"
        },
        "returns": {
          "_0": "Voter"
        }
      },
      "owner()": {
        "details": "Returns the address of the current owner."
      },
      "renounceOwnership()": {
        "details": "Leaves the contract without owner. It will not be possible to call `onlyOwner` functions anymore. Can only be called by the current owner. NOTE: Renouncing ownership will leave the contract without an owner, thereby removing any functionality that is only available to the owner."
      },
      "setVote(uint256)": {
        "params": {
          "_id": "Proposal's ID"
        }
      },
      "transferOwnership(address)": {
        "details": "Transfers ownership of the contract to a new account (`newOwner`). Can only be called by the current owner."
      }
    },
    "title": "Voting contract allowing voter + proposal registration, voting and tallying votes",
    "version": 1
  },
  "userdoc": {
    "kind": "user",
    "methods": {
      "addProposal(string)": {
        "notice": "Add a new proposal"
      },
      "addVoter(address)": {
        "notice": "Register a new voter"
      },
      "endProposalsRegistering()": {
        "notice": "End the proposal registration"
      },
      "endVotingSession()": {
        "notice": "End the voting session"
      },
      "getOneProposal(uint256)": {
        "notice": "Get one proposal"
      },
      "getVoter(address)": {
        "notice": "Get one voter"
      },
      "setVote(uint256)": {
        "notice": "Vote for a proposal based on its ID"
      },
      "startProposalsRegistering()": {
        "notice": "Start the proposal registration"
      },
      "startVotingSession()": {
        "notice": "Start the voting session"
      },
      "tallyVotes()": {
        "notice": "Calculate the winning Proposal based on the max number of votes"
      }
    },
    "version": 1
  }
}